:100000000C9434000C943E000C943E000C943E0082
:100010000C943E000C943E000C943E000C943E0068
:100020000C943E000C943E000C943E000C943E0058
:100030000C943E000C943E000C943E000C943E0048
:100040000C943E000C943E000C943E000C943E0038
:100050000C943E000C943E000C943E000C943E0028
:100060000C943E000C943E0011241FBECFEFD8E04C
:10007000DEBFCDBF0E9445000C945D000C940000D3
:1000800084B5836884BD539A08950E94400090E02F
:10009000892F87BDEFE3FCE93197F1F700C000003D
:1000A0008F5F8F3FB1F787BDEFE3FCE93197F1F741
:0E00B00000C000008150B9F7EBCFF894FFCFED
:00000001FF
