:100000000C9434000C943E000C943E000C943E0082
:100010000C943E000C943E000C943E000C943E0068
:100020000C943E000C943E000C943E000C94400056
:100030000C944B000C943E000C943E000C943E003B
:100040000C943E000C943E000C943E000C943E0038
:100050000C943E000C9456000C943E000C943E0010
:100060000C943E000C943E0011241FBECFEFD8E04C
:10007000DEBFCDBF0E9494000C949C000C94000045
:100080001F920F920FB60F9211242B9A0F900FBE52
:100090000F901F9018951F920F920FB60F92112478
:1000A0002B980F900FBE0F901F9018951F920F92D4
:1000B0000FB60F9211248F939F938091780090E058
:1000C0008138910510F02A9A01C02A9890938B00EC
:1000D00080938A009F918F910F900FBE0F901F9079
:1000E0001895E1E8F0E0808189608083EFE6F0E038
:1000F00080818660808380E293E090938900809382
:10010000880080E991E090938B0080938A000895A5
:10011000ECE7F0E0808180648083EAE7F0E08081B2
:100120008F6E808378940895239A229A38980E943B
:0C01300088000E947100FFCFF894FFCF00
:00000001FF
