S014000041544D45474133325F4144432E73726563D5
S11300000C9434000C943E000C943E000C943E007E
S11300100C943E000C943E000C943E000C943E0064
S11300200C943E000C943E000C943E000C943E0054
S11300300C943E000C943E000C943E000C943E0044
S11300400C943E000C943E000C943E000C943E0034
S11300500C943E000C943E000C943E000C943E0024
S11300600C943E000C943E0011241FBECFEFD8E048
S1130070DEBFCDBF0E9463000C9479000C94000095
S1130080ECE7F0E08081806C8083EAE7F0E0808137
S11300908660808380818E7F808380818068808376
S11300A00895ECE7F0E0808181608083EAE7F0E086
S11300B0808180648083808186FDFDCF809178007B
S11300C09091790008958FEF8AB90E9440000E94B0
S11300D051008138910510F05A9801C05A9A2FEFB7
S11300E087E893E1215080409040E1F700C0000090
S10900F0EECFF894FFCFEF
S9030000FC
