:100000000C9434000C943E000C943E000C943E0082
:100010000C943E000C943E000C943E000C943E0068
:100020000C943E000C943E000C943E000C94400056
:100030000C944B000C943E000C943E000C943E003B
:100040000C943E000C943E000C943E000C943E0038
:100050000C943E000C9456000C943E000C943E0010
:100060000C943E000C943E0011241FBECFEFD8E04C
:10007000DEBFCDBF0E9498000C94A1000C9400003C
:100080001F920F920FB60F9211242B9A0F900FBE52
:100090000F901F9018951F920F920FB60F92112478
:1000A0002B980F900FBE0F901F9018951F920F92D4
:1000B0000FB60F9211242F938F939F938091780006
:1000C0009091790090938B0080938A008BB985384A
:1000D000934010F02A9A01C02A989F918F912F91F6
:1000E0000F900FBE0F901F901895E1E8F0E080810F
:1000F00089608083EFE6F0E080818660808380E223
:1001000093E0909389008093880080E991E0909338
:100110008B0080938A000895ECE7F0E08081816491
:100120008083EAE7F0E080818F6E80837894089581
:100130008FEF8AB9239A229A0E948C000E94750040
:06014000FFCFF894FFCF91
:00000001FF
