:100000000C9434000C9446000C9446000C9446006A
:100010000C9446000C9446000C9446000C94460048
:100020000C9446000C9446000C9446000C94460038
:100030000C9446000C9446000C9446000C94460028
:100040000C9446000C9446000C9446000C94460018
:100050000C9446000C9446000C9446000C94460008
:100060000C9446000C94460011241FBECFEFD8E03C
:10007000DEBFCDBF21E0A0E0B1E001C01D92A13004
:10008000B207E1F70E947D000C94AC000C940000D4
:10009000ECE7F0E0808180688083EAE7F0E080812F
:1000A0008F6E8083EEE7F0E080818083089581E8A1
:1000B00084BD81E085BD16BC17BC18BC539A089559
:1000C000806480937C0085E38A95F1F70000EAE77D
:1000D000F0E0808180648083808184FFFDCFEAE747
:1000E000F0E080818061808385E38A95F1F70000EC
:1000F000809178009091790008950E9448000E94B4
:100100005700C8E7D0E01FEF80E00E9460008881C0
:100110009981969587959695879580930001882378
:1001200051F08F3F79F417BD8FE39CE90197F1F708
:1001300000C0000007C017BC8FE39CE90197F1F7EE
:1001400000C000008091000187BD8FE39CE901970A
:0C015000F1F700C00000D8CFF894FFCFFA
:00000001FF
