S00F00004156525F50574D2E73726563D9
S11300000C9434000C943E000C943E000C943E007E
S11300100C943E000C943E000C943E000C943E0064
S11300200C943E000C943E000C943E000C94400052
S11300300C944B000C943E000C9456000C943E001F
S11300400C943E000C943E000C943E000C943E0034
S11300500C943E000C943E000C943E000C943E0024
S11300600C943E000C943E0011241FBECFEFD8E048
S1130070DEBFCDBF0E94A4000C94AC000C94000021
S11300801F920F920FB60F9211242B9A0F900FBE4E
S11300900F901F9018951F920F920FB60F92112474
S11300A02B980F900FBE0F901F9018951F920F92D0
S11300B00FB60F9211242F933F938F939F93209108
S11300C088003091890080918A0090918B0082177A
S11300D0930710F4019602C080E090E090938B00A7
S11300E080938A009F918F913F912F910F900FBE23
S11300F00F901F90189594B5926094BD95B5956036
S113010095BD9DE2899F802D1124815087BDEEE627
S1130110F0E08081826080830895E1E8F0E08081EE
S113012089608083EFE6F0E080818660808380E2EE
S113013093E0909389008093880080E991E0909304
S11301408B0080938A000895239A81E00E947B00AB
S10F01500E948D007894FFCFF894FFCF3C
S9030000FC
